:020000042400D6
:10000000000002209106002485060024D15100241E
:1000100085060024850600248506002400000000D3
:100020000000000000000000000000008506002421
:100030008506002400000000850600245551002498
:1000400085060024850600248506002485060024F4
:1000500085060024850600248506002485060024E4
:10006000850600248506002485060024494B0024CB
:10007000554B002485060024614B00246D4B002461
:10008000D52D012429390024850600248506002465
:1000900085060024850600248506002485060024A4
:1000A0008506002485060024850600248506002494
:1000B000D54F0024E14F0024ED4F00245D3900248A
:1000C0008506002469390024850600241D1B0124AF
:1000D000291B0124092C0124352C0124692C01241D
:1000E0008506002485060024000000008506002403
:1000F0008506002485060024850600248506002444
:100100008506002485060024F94F0024351B0124B0
:100110009D2C0124D12C0124850600248506002471
:100120008506002485060024591B01248D1B01240B
:10013000092E012485060024850600248506002456
:1001400000000000000000000000000000000000AF
:10015000850600248506002485060024052D01243B
:100160007539002485060024655100248951002436
:1001700085060024AD510024850600248506002450
:100180008506002485060024392D01246D2D0124C7
:10019000411B01244D1B01248506002485060024F3
:1001A0008506002485060024850600248506002493
:1001B0003D48002485060024850600248506002489
:1001C0008506002485060024B10D0124BD0D0124FF
:1001D00085060024C90D0124850600248506002417
:1001E0008506002485060024850600248506002453
:1001F0008506002485060024850600248506002443
:100200008506002485060024850600248506002432
:100210008506002485060024850600248506002422
:1002200085060024850600248506002400000000C1
:1002300085060024850600240000000085060024B1
:1002400085060024850600248506002485060024F2
:1002500085060024850600248506002485060024E2
:1002600085060024850600248506002485060024D2
:100270008506002485060024A12D0124000000002D
:100280008506002485060024850600240000000061
:080290000000000085060024B7
:1002A00010B5054C237833B9044B13B10448AFF3B0
:1002B00000800123237010BD3006002000000000E4
:1002C000506A012408B5034B1BB103490348AFF33F
:1002D000008008BD0000000034060020506A0124A0
:1002E00001F0FF01102A2BDB10F0070F08D010F8E7
:1002F000013B013A8B422DD010F0070F42B3F6D1EB
:10030000F0B441EA012141EA014122F007047FF003
:1003100000070023F0E80256083C85EA010586EA5A
:10032000010685FA47F5A3FA87F586FA47F6A5FA96
:1003300087F68EB9EED1F0BC01F0FF0102F00702A2
:1003400032B110F8013B013A83EA010313B1F8D14D
:100350000020704701387047002D06BF354603382E
:10036000073815F0010F07D1013015F4807F02BF67
:10037000013015F4C03F0130F0BC0138704700BFB8
:1003800053B94AB9002908BF00281CBF4FF0FF31FC
:100390004FF0FF3000F074B9ADF1080C6DE904CEF8
:1003A00000F006F8DDF804E0DDE9022304B0704750
:1003B0002DE9F047089D04468E46002B4DD18A4218
:1003C000944669D9B2FA82F252B101FA02F3C2F14B
:1003D000200120FA01F10CFA02FC41EA030E9440DC
:1003E0004FEA1C48210CBEFBF8F61FFA8CF708FBFD
:1003F00016E341EA034306FB07F199420AD91CEBD5
:10040000030306F1FF3080F01F81994240F21C8106
:10041000023E63445B1AA4B2B3FBF8F008FB10334E
:1004200044EA034400FB07F7A7420AD91CEB040483
:1004300000F1FF3380F00A81A74240F20781644453
:10044000023840EA0640E41B00261DB1D4400023D8
:10045000C5E900433146BDE8F0878B4209D9002D3C
:1004600000F0EF800026C5E9000130463146BDE8C6
:10047000F087B3FA83F6002E4AD18B4202D3824230
:1004800000F2F980841A61EB030301209E46002DDF
:10049000E0D0C5E9004EDDE702B9FFDEB2FA82F234
:1004A000002A40F09280A1EB0C014FEA1C471FFA92
:1004B0008CFE0126200CB1FBF7F307FB131140EA79
:1004C00001410EFB03F0884208D91CEB010103F146
:1004D000FF3802D2884200F2CB804346091AA4B208
:1004E000B1FBF7F007FB101144EA01440EFB00FEDC
:1004F000A64508D91CEB040400F1FF3102D2A64541
:1005000000F2BB800846A4EB0E0440EA03409CE7DF
:10051000C6F12007B34022FA07FC4CEA030C20FA8C
:1005200007F401FA06F31C43F9404FEA1C4900FAAC
:1005300006F3B1FBF9F8200C1FFA8CFE09FB181129
:1005400040EA014108FB0EF0884202FA06F20BD99C
:100550001CEB010108F1FF3A80F08880884240F2EC
:100560008580A8F102086144091AA4B2B1FBF9F030
:1005700009FB101144EA014100FB0EFE8E4508D92B
:100580001CEB010100F1FF346CD28E456AD90238B0
:10059000614440EA0840A0FB0294A1EB0E01A14295
:1005A000C846A64656D353D05DB1B3EB080261EB03
:1005B0000E0101FA07F722FA06F3F1401F43C5E9DD
:1005C000007100263146BDE8F087C2F12003D84013
:1005D0000CFA02FC21FA03F3914001434FEA1C4755
:1005E0001FFA8CFEB3FBF7F007FB10360B0C43EA47
:1005F000064300FB0EF69E4204FA02F408D91CEBF7
:10060000030300F1FF382FD29E422DD902386344F4
:100610009B1B89B2B3FBF7F607FB163341EA034194
:1006200006FB0EF38B4208D91CEB010106F1FF38E3
:1006300016D28B4214D9023E6144C91A46EA0046DA
:1006400038E72E46284605E70646E3E61846F8E66C
:100650004B45A9D2B9EB020864EB0C0E0138A3E7B5
:100660004646EAE7204694E74046D1E7D0467BE796
:10067000023B614432E7304609E76444023842E70E
:10068000704700BF684620F007018D46FEE700BFB7
:100690000A480B4A904208B503D0121A094915F0CE
:1006A0006FF80948094A904203D0121A002115F048
:1006B00075F815F039F800F0AFF8FEE700000020FB
:1006C00030060020906A012430060020D442012028
:1006D000704700BF704700BF704700BF704700BF42
:1006E00010B50D490D4802F0B7FB00B910BD0C4C18
:1006F00040F202332046238050F8041B02F07AFCBB
:1007000004F1080002F01EFB2246201D0549BDE849
:10071000104002F0ABBC00BF04000020A4E00020A9
:10072000604F002029070024B9B30144F0B51546F5
:10073000A5B002F10807441E4E1E01E0A6422AD0D1
:1007400014F8011F6A46384602F044FA0028F5D032
:10075000D5F8A8C090226946D5E92B03C31A00F149
:10076000010E00EBC00048BF63440CF1FF3C9C4508
:10077000E4D0D5F8A430C5F8ACE003EB001014F0D9
:10078000FFFFD5E92A239342A3EB020328BFC5F854
:10079000AC30A642D4D125B0F0BD7047704700BF41
:1007A000704700BF2DE9F041164682B01A461C463C
:1007B000B4469DF820704D1E0836CCF1FE033CF87F
:1007C000021B033440F6FF7803EB0C0EB1F5805F9B
:1007D00047EA0E0E28BF2CF8028CB4454EF0400EAE
:1007E00004F803EC3CF8021C15F801EF4EEA112E58
:1007F00004F802EC3CF802EC04F801ECDFD1002430
:1008000001460C2309A8CDE9004403F0EFFA02B039
:10081000BDE8F081000000002DE9F04F0021C04844
:100820000024C04EC04FA0462DED068BE3B0DFED97
:10083000BFAA01F07FFE4FF0FF330CA907A80E936B
:10084000B0EE6AAA0794F0EE6A8A8DF83C40B0EEEA
:100850006A8A9FEDB79ACDE90C4404F0D3FB07A850
:1008600004F038FC07A804F047FC034607A809EE8B
:10087000903A04F04DFCAF4B10A90546AE481093DA
:10088000AE4B14941193AE4B1293AE4B139302F0F4
:1008900099FAAD49A84802F089FAAC4A102315A983
:1008A000128808A88DF864300123ADF85820A84AB2
:1008B000179312881594ADF85A201894089403F0F1
:1008C000D5F9089A012360213EA83E928F22CDE9F6
:1008D00000443270324603F089FA089A01236021FD
:1008E0003E92C0223EA89B46CDE90044327032467B
:1008F00003F07CFA8023F8EE699A964E8DF8243046
:100900008DF825308DF826308DF8273040F6FF73AE
:10091000ADF8283040F6FF33ADF82A3040F2FF73CF
:10092000ADF82C3040F2FF33ADF82E3003230493A2
:1009300007A804F0EDFB451BB7EEC87A044606EEA7
:10094000905A7D48F8EE666A9FED735B86EEA96A61
:10095000B7EEC64A78EE868AA4EE057BB7EEC78B63
:1009600002F052FA7849744802F076FA00284ED123
:10097000DFED797AF4EEE78AF1EE10FA18DAB4EEE8
:10098000C89AF1EE10FA11D54146654801F010FD04
:10099000694802F06BFAF3EE097A9FED659A002838
:1009A0009FED628A88F0010807FE899A2546BFE715
:1009B000049BBBF1000F00F0DD80032B00F01E81D3
:1009C000002B40F00781F7EE00AAB4EEEAAAF1EEA0
:1009D00010FAC0F2FF80B0EE6AAADFED627A03225D
:1009E0006AEE277A0492FCEEE77A17EE903A9BB211
:1009F000ADF82C300AAA089B09A96020DFED4B8ACC
:100A0000019301230093474BFFF7CCFEB7E7534810
:100A100002F03AFB0028ABD0504802F035FB00282A
:100A200000F0F380D7F8AC900594D7F8B050B9EB4C
:100A300005035ED4002B61D04D4561D0D7F8A430BA
:100A400005EBC50A90223EA803EB0A140135039377
:100A50004FEA0A1A214614F093FED7F8A820039B08
:100A60009542247A13F80AA0C7F8B05002D3AD1A01
:100A7000C7F8B05090223EA91AA814F081FEBAF12E
:100A8000000F43D0BAF1010F0ED1A4F11C0234497A
:100A90004FF0000BC2EB023281FB02311144D2173E
:100AA000C2EB6112ADF828207068D6E902128A1AEA
:100AB00048BF121801389042B7D0336801EBC1002B
:100AC0000131902203EB00108DF868A0B1601AA9E3
:100AD0008DF8704014F054FED7F8AC90D7F8B050B1
:100AE000D6E90123934224BF9B1AB360B9EB0503F7
:100AF000A0D5D7F8A8201344002B9DD1059C37E73B
:100B00000024902200211AA814F048FE4FF0000A99
:100B10004FF0010BC8E700BF0000000000408F400D
:100B2000EC4E002000000030604F0020000000006C
:100B300000004842D5060024A4E000209D070024C0
:100B4000E1060024A107002404000020106801240D
:100B5000146801244C0600203EC3AE39644F0020C7
:100B60005D414CAE00F07F450E74DA3A00000000A3
:100B700000009643013B022B58D8DFE803F0140233
:100B80000E00B6EE00AA5FED097A6AEE277AFCEE57
:100B9000E77A17EE903A9BB22AE7002304931FED01
:100BA0000DAA002324E7F6EE007AB4EEE7AAF1EEF0
:100BB00010FA36D95FED147A3AEE67AAF7EE007AAA
:100BC000B4EEE7AAF1EE10FA12DBB7EE00AA40F697
:100BD000FF730DE7F0EE4AAAB5EEC0AAF1EE10FAE7
:100BE0003FF6FBAE032200231FED20AA0492FFE68E
:100BF000B5EEC0AAF1EE10FAD1D9C4E71FED247A00
:100C0000CAEE877A3AEE67AAE6E7114802F09AF848
:100C1000104802F03DFA104A1049101D02F026FA61
:100C200000E70223B0EE67AA0493ACE7F7EE007A80
:100C3000B4EEE7AAF1EE10FA02DB01230493C4E755
:100C4000DFED077A00233AEE27AA0493B6E700BF48
:100C5000684F0020644F0020604F002029070024C7
:100C60000E745A3B38B5234800244FF60B736FF0CF
:100C7000F411214A81254461046283654466046756
:100C8000C0E90041C0E90A34C0E90F34C0E90211EB
:100C9000C0E90C441949C0E91144C0E9174414F0F3
:100CA00027FD1748174B4FF44071134AC0F89C308A
:100CB00040F20F73016000F1B401C0F8A03040F2BF
:100CC00001134460C0F8AC40C0F8B040C0E929133B
:100CD0000D4914F00DFD0D480D4B00F11001064AB1
:100CE0001C60C0E90015C0E902440A49BDE838406B
:100CF00014F0FEBCEC4E002000000020D1060024C1
:100D0000604F00200080707FDD0600244C0600202C
:100D1000A4E00020D906002408B50221D0F8D83379
:100D20009847002008BD00BF0020704738B5D0F8B4
:100D30008033DD694DB12978044691B9297931B9FB
:100D4000D4F880230023D3612B81002038BD2046B6
:100D500001F0D0FA2979204601F01EFB00232B7008
:100D6000EEE701F0C7FA2978204601F015FB0023D1
:100D700029792B700029E3D0E9E700BF2DE9F0477E
:100D80000546414E84B05422D5F8804300213046B8
:100D9000E66114F003FDFF2303222179284600F0C9
:100DA00071F901284DD801460446284600F05EF945
:100DB0000746002845D14FF01A0909FB045999F854
:100DC0004633002B37D024B280464FF0020A04EBA2
:100DD000440104EB810405EB440494F94E3394F888
:100DE0004E13002B32DA71704022B4F8503328468B
:100DF000C3F30903934294BF7380728001F080FAB9
:100E000073880146CDF804A0029395F81D337278DB
:100E100030702846009395F81C3301F05BFA0022ED
:100E20003178284604F07AFF08F1010899F8463332
:100E300008344345D1DC00233846338104B0BDE893
:100E4000F0870227384604B0BDE8F0877171284664
:100E5000B4F85033C3F30903F38001F051FAF38877
:100E60000146CDF804A0029395F81D3372793071D4
:100E70002846009395F81C3301F02CFA00223179B2
:100E8000284604F04BFFCFE70C000030F8B5D0F84F
:100E9000803353B1DE6946B1347A0546052C3ED81D
:100EA000DFE804F00C101520060302242046F8BDEC
:100EB000717801F0EBF80228044632D00123204675
:100EC0003372F8BD0223002433722046F8BD337814
:100ED00006F114017288002401F0ECF90323204686
:100EE0003372F8BD317804F00FFF10F0FD0402D129
:100EF00003233372DAE7012803D004230224337278
:100F0000D4E73178284604F0B7FE0223F46801469E
:100F10003372002CCAD0326906F11400A0470024B5
:100F2000C4E7D5F88033DF6947B1397899B93979A1
:100F300039B9D5F880230023D3613B81052333726F
:100F4000B4E7284601F0D6F93979284601F024FAA9
:100F500000233B70EDE7284601F0CCF939782846AC
:100F600001F01AFA00233B70E1E700BFD0F88033AC
:100F7000DB69C3E90312704790B313463C2270B596
:100F80000025044680F8D0330E462946C0E9E055D6
:100F900000F5627014F002FC4FF40072294604F56B
:100FA0008E7014F0FBFB40224FF480732570A27109
:100FB0000122C4F8C853A4F8013084F82053C4F8BF
:100FC0001C3384F82153228384F8235384F822535A
:100FD0000EB1C4F8D863204604F0EAFD002070BDCD
:100FE0000220704710B504463C22002100F56270D3
:100FF00014F0D4FB4FF40072002104F58E7014F04D
:10100000CDFB012100234FF4807240202183D4F8CE
:10101000D4132370A4F80120C4F8C833A07184F855
:101020002033C4F81C2384F8213384F8233384F854
:101030002233C4F8843311B1204604F0F7FD0020B8
:1010400010BD00BF79B1D0F884230346012A0AD825
:10105000002010B4541CDE32C3F884435DF8044B06
:1010600043F8221070470220704700BF90F83C23DD
:1010700003468A4203D9002083F8241370470220D4
:10108000704700BF90F847C310B4A1F1FF048C452E
:10109000B4FA84F44FEA541409D044B990F861C307
:1010A0008C4512D08CB9FF205DF8044B704790F846
:1010B00048C3944501D0FF2AF0D190F849C39C451C
:1010C00001D0FF2BEAD10020EEE790F862139142A5
:1010D00001D0FF2AE7D190F863239A4201D0FF2B79
:1010E000E1D10120E0E700BF10B5044604F090FD17
:1010F0000121204604F00CFE002010BD10B504466E
:10110000002104F005FE204604F090FD21792046E0
:1011100001F042F96179204601F03EF9002010BD4E
:1011200070B5022386B004468DF8173090F821334D
:10113000012B01D10323037023780B2B20D8DFE888
:1011400013F02A003C00520089001F00BE000C0072
:10115000C8000001D300DB002200D4F880336BB15B
:101160001B69204698478DF817009DF81730002B13
:1011700000F0F2809DF81730022B01D10D2323706F
:10118000002006B070BDD4F88033002BF8D05B6926
:1011900020469847F4E794F82033002BF0D0012341
:1011A000C820237004F0CCFD204604F057FD002336
:1011B00084F81C33C4F8CC33E2E794F82333012BD2
:1011C00000F05781D4F8CC33B3F57A7F40F2C78072
:1011D00094F81F330133DBB2032B84F81F33CDD8CF
:1011E00000232370CCE7D4F8D83313B10421204670
:1011F00098476420002504F0A3FD204604F024FD58
:101200000523294684F81D032370204601F078F851
:10121000034680212046637101F072F8A27994F8A8
:101220001D330146CDE901520093802294F81C330E
:101230002071204601F04EF8A27994F81D13204643
:1012400094F81C330091CDE901522A46617901F0EE
:1012500041F895E700253C2204F56270294684F8A0
:10126000215314F09BFA4FF40072294604F58E7056
:1012700014F094FA01224FF4807340212283D4F8B1
:1012800080232570A4F80130C4F8C853A171C4F8B4
:101290001C3322B1D36820469847C4F88053D4F851
:1012A000D83313B105212046984794F82233012BF7
:1012B000DDB200F0D380204604F0AAFC60E7657838
:1012C000072D00F28C80DFE805F0B2A980766B5123
:1012D000A08CD4F8D833002B3FF452AF0121204624
:1012E0009847082323704BE794F83F339B0600F19F
:1012F000C6800A23237043E7D4F88433002B3FF4DD
:101300003FAF0021D4F8783394F84723C4F8801312
:101310001979914205D0D4F87C33197991427FF440
:101320002DAF9A682046C4F88033904700287FF498
:1013300025AF0622D4F8D8330321204622709847DF
:101340001EE794F83D13204600F0ECFC00287FF4E3
:1013500017AF0923237013E70B23237010E70A3319
:101360000A20C4F8CC3304F0EBFC09E794F83413FA
:10137000002940F0D2800623012563708DF81750B4
:101380009DF8173003F0FF02002B7FF4F9AE94F8BC
:10139000373384F82423012BA3D007232370EFE6EF
:1013A000B4F83A13204600F007FB00286FD105235C
:1013B00001256370E2E70921204600F0FDFA0028CC
:1013C00065D1042301256370D8E70121204600F090
:1013D000CFFB064600287ED0032800F0C5800125FB
:1013E000CCE794F83653002DC8D02946FF2304F5E6
:1013F0008E72204600F07EFB002818BF03280CBF29
:101400000120002080F00105B8E794F83513002989
:1014100040F09080072301256370AFE7122120463A
:1014200000F0C8F9002849D102236370A6E708211B
:10143000204600F0BFF90646002800F08880032807
:10144000CDD194F81E330133DBB2032B84F81E3365
:1014500040F290800D23012523708FE70023204662
:1014600084F8223304F0D4FB2946204604F050FCD3
:1014700086E60022022384F81F23237080E60121E0
:10148000204600F029FD00287FF47AAE31E70328DA
:10149000A5D194F81E330133DBB2032B84F81E333D
:1014A000D8D86179204600F077FF217920460125C0
:1014B00000F072FF0023637023705FE703288ED172
:1014C00094F81E330133DBB2032B84F81E335DD94D
:1014D0000D23237052E70220012504F031FCA3798B
:1014E000032284F81C536270CDE901632B4694F803
:1014F0001D23009221798022204600F0EBFEA17985
:1015000094F81D333246019620460291009394F8D8
:101510001C33617900F0DEFE30E7FF2304F58E72A4
:10152000204600F0E7FA00283FF425AF03287FF4B7
:1015300056AF20E7FF2304F58E72204600F0DAFA5A
:1015400000283FF467AF03287FF449AF62E794F8BF
:101550002D33012594F81D230190A371657002932A
:10156000009294F81C33C5E70D2200230125227058
:10157000637003E76179204600F00EFF2179204671
:10158000012500F009FF00232370F7E6617920466A
:1015900000F002FF2179204600F0FEFE0023637078
:1015A0002370EBE6C0F8C813704700BFD0F8C8231B
:1015B0000132C0F8C82302780B2A00D07047D0F857
:1015C0008033002BFAD09B69184700BF012380F8B5
:1015D00023337047002380F82333704703460022EB
:1015E0000121104683F8201383F8212383F8222356
:1015F000704700BF38B501230025044680F8213329
:1016000080F8235380F8205304F010FB2179204602
:1016100000F0C2FE6179204600F0BEFE284638BDCB
:1016200030B5057E83B004466B1E0A2B28D8DFE850
:1016300003F0141C2B89697638444F5C0600437E06
:101640000133DBB2022B437600F2968001231D4664
:1016500003768370284603B030BD427900F1100153
:1016600000F0EEFD02232376F4E7417904F04CFB11
:101670000128054600F0908004283FD002283DD084
:101680000125284603B030BDD0F8C80301252379D1
:10169000E0812046A289A16800F0FCFD04232376A6
:1016A000D8E7002203790125114600F0F3FDD4F8B4
:1016B000C8230823E2812376CCE7017904F024FBD8
:1016C00001284DD0042819D00528D9D1032548E098
:1016D0000022012543791146009500F0C1FDD4F8A0
:1016E000C8230A23E2812376B4E7417904F00CFB96
:1016F000012835D002282FD00428C1D10B23012581
:101700002376A7E70125437982898168009500F057
:10171000A7FDD4F8C8230623E28123769AE741790E
:1017200004F0F2FA012823D00528CFD0022839D0BE
:101730000428A5D10B232376022501232846A37074
:1017400003B030BD017904F0DFFA012804D0052888
:10175000D2D1BBE71B060BD509230125237679E7F8
:101760000025012200232846A270237603B030BD55
:101770000723012523766DE70025D0F8D83306210D
:10178000984761792046657600F006FE217920466B
:1017900000F002FE2570CFE7E28A237C002AD9D030
:1017A0001A0603D405230125237653E70323237662
:1017B00050E700BF70B5857882B004460E46012D13
:1017C0001DD0022D17D190F818C00CF1FF330A2B51
:1017D00011D8DFE803F02F3847065461717D8C99EA
:1017E0002300017904F090FA012800F09580052883
:1017F00077D0042832D00125284602B070BD0023DE
:101800006C490222C682838200F58E738681016153
:10181000057682708360284602B070BD437E013336
:10182000DBB2022B437600F2A78001231D4603762C
:101830008370E1E7427900F11001654600F000FD98
:1018400002232376D8E7417904F05EFA01280546A1
:1018500000F0A280042801D00228CCD10B2301255E
:101860002376C9E7D0F8C80301252379E081204613
:10187000A289A16800F00EFD04232376BCE70125B0
:10188000437982898168009500F0EAFCD4F8C82386
:101890000623E2812376AFE7417904F035FA012887
:1018A00066D005281DD002287CD00428A3D10B23A4
:1018B00023760123A3709FE70022037901251146B7
:1018C00000F0E8FCD4F8C8230823E281237693E7EC
:1018D000017904F019FA012822D00428BED0052885
:1018E00089D1012200230325A270237684E70022F8
:1018F000012543791146009500F0B2FCD4F8C823C5
:101900000A23E281237677E7417904F0FDF9012883
:1019100006D002287FF46DAF0923012523766BE7FB
:10192000B4F81E3101220025082EA4F82833B4F89B
:101930002031A270A4F82A33B4F822312576A4F815
:101940002C33B4F81C31A4F826337FF655AFD4F805
:1019500024112846B4F82821D4F82A31C4F82E13CB
:10196000A4F83223C4F8343302B070BD1306D3D4C4
:101970000723012523763FE70026D0F8D833062138
:10198000984761792046667600F006FD2179204669
:1019900000F002FD26708CE7E38A227C002BE5D064
:1019A000120603D405230125237625E70323237696
:1019B00022E700BF800600012DE9F04790F802C041
:1019C00005460E4600F11C04BCF1010F00F08280B8
:1019D000BCF1020F79D1FFF723FE8446002876D1AF
:1019E00095F82430092EE88B85F84033AB8BA5F8A9
:1019F0003A03A5F838332B8CA5F83C336B8CA5F84B
:101A00003E3364D9AE46674609224FF01A08FEB24B
:101A1000012E8CBF00260126904258D9002E56D0A8
:101A200023781C44134461789AB20429F4D12378B2
:101A300090428EF8423363788EF84333A3788EF861
:101A40004433E3788EF8453326798EF8466363791C
:101A50008EF84733A3798EF84833E3798EF849330B
:101A6000237A8EF84A332CD95EB3002108FB07F99C
:101A700001E08E4225D923781C4413449AB263783E
:101A8000052B1CD1013194F800A009EBC103C9B2A8
:101A90002B4483F844A394F801A083F845A394F859
:101AA00002A083F846A394F803A083F847A3B4F8F0
:101AB00004A0A3F848A394F806A083F84AA3904290
:101AC000D7D801370EF11A0EA1E74FF0010C60468E
:101AD000BDE8F087064A0223E982026100228460A1
:101AE000A98180F818C0828283706046BDE8F087C3
:101AF00080060002F8B51646827804461D46012A83
:101B000000F58E770ED0022A09D1FFF789FD024633
:101B100018B994F81D31032B15D01046F8BD0122D9
:101B20001046F8BD41F4407102238760418240F2C3
:101B3000094183704FF4D063C5828182858102762A
:101B400003821046F8BD94F81C31023BAB4228BF1B
:101B50002B4698B243B11346F91802339BB28978E9
:101B6000984206F8011BF7D8002310463370F8BDE1
:101B700070B5857882B00446012D1DD0022D17D195
:101B800090F818C00CF1FF330A2B11D8DFE803F0EE
:101B90002E374506525F6F7B8C992200017904F045
:101BA000B3F8012800F09580052875D0042830D0BE
:101BB0000125284602B070BD4FF4A0600023022228
:101BC000618220822846A360A38163612576A2708A
:101BD00002B070BD437E0133DBB2022B437600F2CC
:101BE000848001231D4603768370E2E7427900F189
:101BF0001001654600F024FB02232376D9E74179E2
:101C000004F082F8012805467FD0042801D002287C
:101C1000CED10B2301252376CBE7D0F8C8030125CD
:101C20002379E0812046A289A16800F033FB0423D8
:101C30002376BEE70125437982898168009500F00B
:101C40000FFBD4F8C8230623E2812376B1E741795C
:101C500004F05AF8012844D005281DD002285AD093
:101C60000428A5D10B2323760123A370A1E700222A
:101C700003790125114600F00DFBD4F8C823082391
:101C8000E281237695E7017904F03EF8012824D01B
:101C90000428BED005288BD1032501220023284625
:101CA000A270237602B070BD00220125437911464F
:101CB000009500F0D5FAD4F8C8230A23E2812376F0
:101CC00077E7417904F020F8012806D002287FF454
:101CD0006DAF0923012523766BE70025DDE71306A9
:101CE000F7D407230125237663E70026D0F8D833FD
:101CF0000621984761792046667600F04DFB2179F0
:101D0000204600F049FB2670AEE7E38A227C002BD8
:101D1000E5D0120603D405230125237649E70323E2
:101D2000237646E770B5857882B00446012D1DD034
:101D3000022D17D190F818C00CF1FF330A2B11D8DF
:101D4000DFE803F02E374506525F6F7B8C99220047
:101D5000017903F0D9FF012800F09580052875D09E
:101D6000042830D00125284602B070BD4FF4106021
:101D700000230222618220822846A360A38163613E
:101D80002576A27002B070BD437E0133DBB2022B18
:101D9000437600F2848001231D4603768370E2E7D8
:101DA000427900F11001654600F04AFA02232376D9
:101DB000D9E7417903F0A8FF012805467FD0042820
:101DC00001D00228CED10B2301252376CBE7D0F812
:101DD000C80301252379E0812046A289A16800F08B
:101DE00059FA04232376BEE7012543798289816865
:101DF000009500F035FAD4F8C8230623E281237653
:101E0000B1E7417903F080FF012844D005281DD0B7
:101E100002285AD00428A5D10B2323760123A370CE
:101E2000A1E7002203790125114600F033FAD4F826
:101E3000C8230823E281237695E7017903F064FF44
:101E4000012824D00428BED005288BD103250122E7
:101E500000232846A270237602B070BD002201251F
:101E600043791146009500F0FBF9D4F8C8230A2302
:101E7000E281237677E7417903F046FF012806D017
:101E800002287FF46DAF0923012523766BE7002537
:101E9000DDE71306F7D407230125237663E7002641
:101EA000D0F8D8330621984761792046667600F04D
:101EB00073FA2179204600F06FFA2670AEE7E38AC4
:101EC000227C002BE5D0120603D4052301252376BE
:101ED00049E70323237646E770B5857882B0044648
:101EE000012D1DD0022D17D190F818C00CF1FF3331
:101EF0000A2B11D8DFE803F02E374506525F6F7BBF
:101F00008C992200017903F0FFFE012800F09580F2
:101F1000052875D0042830D00125284602B070BDB0
:101F20004FF4407000230222618220822846A36081
:101F3000A38163612576A27002B070BD437E013338
:101F4000DBB2022B437600F2848001231D46037628
:101F50008370E2E7427900F11001654600F070F904
:101F600002232376D9E7417903F0CEFE0128054606
:101F70007FD0042801D00228CED10B23012523765F
:101F8000CBE7D0F8C80301252379E0812046A28958
:101F9000A16800F07FF904232376BEE70125437989
:101FA00082898168009500F05BF9D4F8C823062384
:101FB000E2812376B1E7417903F0A6FE012844D0FF
:101FC00005281DD002285AD00428A5D10B2323763A
:101FD0000123A370A1E7002203790125114600F037
:101FE00059F9D4F8C8230823E281237695E70179CB
:101FF00003F08AFE012824D00428BED005288BD106
:102000000325012200232846A270237602B070BD6A
:102010000022012543791146009500F021F9D4F8FA
:10202000C8230A23E281237677E7417903F06CFE27
:10203000012806D002287FF46DAF092301252376FD
:102040006BE70025DDE71306F7D407230125237688
:1020500063E70026D0F8D8330621984761792046F7
:10206000667600F099F92179204600F095F92670FE
:10207000AEE7E38A227C002BE5D0120603D40523C9
:102080000125237649E70323237646E770B5857853
:1020900082B00446012D1DD0022D17D190F818C032
:1020A0000CF1FF330A2B11D8DFE803F02E37450679
:1020B000525F6F7B8C992200017903F025FE012885
:1020C00000F09580052875D0042830D001252846D9
:1020D00002B070BD4FF4817000230222A182206102
:1020E0002846E382A360A3812576A27002B070BD6A
:1020F000437E0133DBB2022B437600F2848001235E
:102100001D4603768370E2E7427900F110016546CF
:1021100000F096F802232376D9E7417903F0F4FD25
:10212000012805467FD0042801D00228CED10B23F8
:1021300001252376CBE7D0F8C80301252379E08178
:102140002046A289A16800F0A5F804232376BEE703
:102150000125437982898168009500F081F8D4F8DF
:10216000C8230623E2812376B1E7417903F0CCFD51
:10217000012844D005281DD002285AD00428A5D112
:102180000B2323760123A370A1E700220379012505
:10219000114600F07FF8D4F8C8230823E2812376A3
:1021A00095E7017903F0B0FD012824D00428BED0C2
:1021B00005288BD10325012200232846A27023760F
:1021C00002B070BD0022012543791146009500F050
:1021D00047F8D4F8C8230A23E281237677E74179C8
:1021E00003F092FD012806D002287FF46DAF092389
:1021F000012523766BE70025DDE71306F7D40723D7
:102200000125237663E70026D0F8D83306219847C6
:1022100061792046667600F0BFF82179204600F00B
:10222000BBF82670AEE7E38A227C002BE5D01206CD
:1022300003D405230125237649E70323237646E7C4
:1022400030B5002485B0082501912346114603943A
:1022500022460295009403F03BFD204605B030BDB8
:1022600010B50C4684B0194690F81D33CDE90142F3
:10227000002B4FF001044FF0000300949DF818402C
:1022800018BF1C461A46039403F022FD002004B038
:1022900010BD00BF30B5002485B00125019119465D
:1022A000029223462A460394009503F011FD20462E
:1022B00005B030BD30B585B00D46002419460292F8
:1022C000012202230394CDE9002503F001FD2046FD
:1022D00005B030BD10B584B09DF8184000949DF84D
:1022E0001C400194BDF82040029403F0C9FC00207A
:1022F00004B010BD08B503F0DDFC002008BD00BF30
:10230000D0F8883313F400432BD0D0F88C331A0460
:1023100026D5D0F890331B042BD5D0F894331A046B
:1023200029D5D0F898331B0427D5D0F89C331A044C
:1023300025D5D0F8A0331B0423D5D0F8A4331A0434
:1023400021D5D0F8A8331B041FD5D0F8AC331A041C
:102350001DD5D0F8B0331B041BD5FF23184670479A
:10236000012303F1E20241F4004140F82210184633
:1023700070470223F5E70323F3E70423F1E705237E
:10238000EFE70623EDE70723EBE70823E9E7092357
:10239000E7E70A23E5E700BF0A2907D800EB810039
:1023A000D0F88833C3F30E03C0F888330020704799
:1023B000283001F07BB800BF10B540F203338EB077
:1023C00000244FF60B7240F20341ADF8083009A823
:1023D0000123ADF81020ADF824202246ADF80C10F2
:1023E0000094029907940C94CDE90544CDE90A4480
:1023F00000F06AFF04A8012322460399009400F02C
:1024000063FF09A801F046F810B901200EB010BD15
:1024100004A801F03FF8A0420CBF022020460EB0F5
:1024200010BD00BF2DE9F04103239AB04FF0010821
:1024300000254FF60B740746CDE91438394BADF83B
:102440004C40CDE91053A3F19F63A3F57D43CDE943
:1024500016581293FFF7B0FF4045064623D00228D6
:1024600042D040F60132304B07F158000BACADF8CA
:102470002C200B991895CDF86480CDF84A3000F0E7
:10248000DBF810A907F1700002F076FB274B0FCBA9
:1024900084E80F003A6F214607F1140000F048FB72
:1024A0001AB0BDE8F08110231F4A06A906908DF8E6
:1024B00028300BAC1E4BCDF84A2007930295CDE98E
:1024C0001805CDE9080502A801F0D0FB0823029AFF
:1024D00003A92046ADF80C608DF80E5004960593C4
:1024E0000B9500F0E9F8CCE740F60133ADF82C404D
:1024F00000200BACADF8183001210B4B4246009583
:10250000CDF84A302B460E95CDE9180106992046A4
:10251000CDE90C5500F0D8FE2946204600F0C6FF54
:10252000AFE700BF0402040404060403AC670124FF
:102530000704010B2DE9F04704462DED028B82B014
:10254000002949D0012140F2011200230091ADF889
:1025500004208DF80630354A0127354B04F1040973
:10256000344904F13C08626040F20272A36040F614
:102570000663E16004F1280A2285A3872782E762C7
:10258000276403F03FF8054602F094FE69460646CC
:1025900050BB4DB304F150008DF8067002F0B4FF4B
:1025A000072D3ED104F114052046FFF73BFF2846D6
:1025B00000F0FAFA2846B0EE408A00F0F1FAD0EDC9
:1025C000007AF8EE677A88EE277A84ED1B7A02B0FB
:1025D000BDEC028BBDE8F08740F2011300918DF84D
:1025E0000610ADF80430B6E704F1500002F08CFF9D
:1025F000072D13D04946204601F03EFF0EB9002DAD
:10260000D0D15146504600F079FD4046414600F099
:1026100075FD04F1120000F079F9C3E7002EF0D146
:10262000C0E74946204601F027FFBBE7050805093A
:1026300005070506050A060630B585B000250446DF
:102640000122ADF80C102B460399009500F03CFEDA
:102650000121204600F02AFF012002F029FE294630
:10266000204600F023FF012002F022FE0121204637
:1026700005B0BDE8304000F019BF00BF10B5C2F38F
:10268000002384B00C46017C8DF80D2043EA4402FF
:10269000FA2402238DF80C2003AA009401F07EFB9B
:1026A00018B10124204604B010BD04460A2002F0EF
:1026B000FFFD204604B010BD034670B543F8042B5F
:1026C000044684B007C983E80700A37983B91A21B7
:1026D0000B461E22FA2523742046ADF80C20022357
:1026E00003AA009501F05AFB28B1012004B070BD87
:1026F0001B210B46EDE70A2002F0DAFD4FF4B85239
:1027000000950223ADF80C20204603AA217C01F09D
:1027100045FB0028E9D10A2002F0CAFD41F202720D
:1027200000950223ADF80C20204603AA217C01F07D
:1027300035FB0028D9D10A2002F0BAFD0422009509
:102740000223ADF80C20204603AA217C01F026FBD1
:102750000028CAD10A2002F0ABFD06220095022310
:10276000ADF80C20204603AA217C01F017FB0028BD
:10277000BBD10A2002F09CFD41F208220095022301
:10278000ADF80C20204603AA217C01F007FB0028AD
:10279000ABD10A20064602F08BFD0095022303AA66
:1027A000217C2046ADF80C6001F0F8FA00289CD19D
:1027B000304602F07DFD009522790C232046002A48
:1027C0008DF80C3003AA4FF0020314BF622142219E
:1027D0008DF80D10217C01F0E1FA002885D13046FA
:1027E00002F066FD2279D4E902310B43DBB20AB96B
:1027F00043F0400362790AB143F020030E22FA2528
:102800008DF80D302046009502238DF80C2003AA88
:10281000217C01F0C3FA00287FF467AF0A2002F0A0
:1028200047FD102200950223ADF80C20204603AA94
:10283000217C01F0B3FA00287FF457AF0A2002F0A0
:1028400037FD122100950223ADF80C1003AA217C5C
:10285000204601F0A3FA00287FF447AF0A2002F0D7
:1028600027FD012209212046FFF708FF003818BF85
:1028700001203BE7F0B5102387B0234C012200254F
:102880000126002702A920460195CDE902234FF435
:102890008052CDE904670BF055FE642003F0BCFACA
:1028A00002A94FF480522046CDE904670226102782
:1028B000CDE902670BF046FE0322102302A9204651
:1028C000CDE9022300230422CDE904234FF48052F2
:1028D0000BF038FE40F23223042202A901931023A8
:1028E0002046CDE90223019A012305924FF480523C
:1028F00004930BF027FE40F6060120460BF042FE43
:10290000284607B0F0BD00BFB0E000201C4B0022FD
:102910001C494FF0400C30B5054689B00220596083
:1029200007219A601A620124DA620A224FF4006ECB
:10293000DC6006922022CDE9000104200821CDE9C7
:10294000020103201021CDE9040108206946C3E9F2
:1029500004024FF4C072181DC3E906C24FF480523E
:10296000C3E909E20BF0C4FD38B92846FFF782FF3E
:10297000003818BF012009B030BD204609B030BD75
:10298000ACE0002040410052614A0021D0B51368FC
:102990008EB00A91002B40F0B9805E4B01214FF6BA
:1029A00083700C2411600221D3F8D4200026032761
:1029B00042F48052C3F8D420D3F8D42002F48052D9
:1029C0000092009AD3F8E02042F01002C3F8E02011
:1029D000D3F8E02002F010020192019AD3F8E0202F
:1029E00042F04002C3F8E020D3F8E02002F04002B9
:1029F0000292029AD3F8E02042F00802C3F8E020E5
:102A0000D3F8E02002F008020392039AD3F8E02002
:102A100042F48072C3F8E020D3F8E02002F4807220
:102A20000492049AD3F8E02042F08002C3F8E02038
:102A3000D3F8E02002F080020592059AD3F8E02056
:102A400042F02002C3F8E020D3F8E02002F0200298
:102A50000692069AD3F8E02042F00402C3F8E02080
:102A6000D3F8E0300C9403F0040307930323079A90
:102A70000B93CDE9080108A9274804F051FD48F25D
:102A80003712022308A925480C94CDE90823CDE983
:102A90000A6704F045FD4CF20372022308A920489E
:102AA0000C94CDE90823CDE90A6704F039FD40F222
:102AB000FF62022308A91B480C94CDE90823CDE945
:102AC0000A6704F02DFD4FF60C72022308A9164880
:102AD0000C94CDE90823CDE90A6704F021FD4FF6F7
:102AE0003F02022308A911480C94CDE90823CDE93F
:102AF0000A6704F015FD2022022308A90A480C9455
:102B0000CDE90A67CDE9082304F00AFD0EB0D0BD77
:102B1000A8E0002000440258001002580018025893
:102B2000000C025800200258001C025800140258E1
:102B300030B5184C154685B0046004F1080EEC461B
:102B40000FC98EE80F00D4ED047AF5EEC07A8CE858
:102B50000F00F1EE10FA1ADDB7EE006A94ED057A77
:102B600027EE277AC6EE276A84ED0D7AC4ED0C6A4B
:102B70006DB1204640F8185F02F0F6F80649036987
:102B80000020064A2162A262E36005B030BD012048
:102B900005B030BDE4E0002060200030600000306F
:102BA00000680830704700BF0068183002F0DEB8D7
:102BB00010B4074B4FF07E513024002203201961DE
:102BC0009C60D8605DF8044B5961C3E906227047E8
:102BD000E4E0002038B50446104694F895301942D8
:102BE000237815D0032B19D094F89820002594F859
:102BF00096300A4025700B40A26001F0F8021B09D4
:102C0000F82A237100F08680092B73D9002038BD83
:102C1000032BFBD8DFE803F0112A5102F7291CD05F
:102C200094F98E2094F88E30002AEFDBE2180133FD
:102C30000020917384F88E3038BD94F8942094F875
:102C4000973022711940131F012B217305D994F875
:102C50008F3003F0FD03012B45D10023237018B101
:102C60009022211D12F08CFD012038BD94F8973080
:102C700094F894201940131F2173012B05D994F85F
:102C80008F3003F0FD03012B29D10023237000288E
:102C90004CD09022211D12F073FD94F89420012055
:102CA000032AB4D1237B772BB1D90922783B227137
:102CB00084F8942084F8913038BD94F8973094F8D3
:102CC00094201940012A617300D181B118B190227A
:102CD000211D12F055FD00230120237038BD022371
:102CE00000202370DCE702230020237038BD00237E
:102CF0002371EBE70122072B227019D101F00703A2
:102D0000A56084F88F30CBB90322184684F88E3042
:102D1000227038BD0823237194F89930002219409D
:102D2000227084F8901000289AD19DE70120B7E71F
:102D3000082BF1D0284684F8943038BD4B077FF536
:102D400065AF8AE700220A2302700371704700BF53
:102D5000704700BF0239042910D8DFE801F0100FD6
:102D6000190803000F4AD36843B1106918470D4A88
:102D700003200D4953680870002BF6D17047094AAB
:102D80000220094993680870002BF7D01069184792
:102D9000044A0120044913680870002BEED0106922
:102DA000184700BF20E100201CE1002008B50448BE
:102DB000FEF748F9002814BF0220002008BD00BF1C
:102DC0006040003008B58C460C4B03609E46BCE862
:102DD0000F00AEE80F00DCF8003000220849094877
:102DE000CEF80030FEF7C8F808B1022008BD05484B
:102DF000FEF77AF90028F8D108BD00BF20E10020D5
:102E0000552D00246040003038B5114C2378204601
:102E10000D2B06D0FEF784F900280CBF00200220FD
:102E200038BDD4F88453FEF769F92046FEF7DAF886
:102E3000002208492046FEF79FF818B10220C4F886
:102E4000845338BD2046FEF74FF90028F7D0F5E748
:102E500060400030552D0024034BD3F88003401A06
:102E6000B0FA80F04009704760400030064B1B7894
:102E70000D2BDAB206D842F20900D040C04300F070
:102E800001007047012070476040003000214FF47E
:102E90007772084810B5084CC4E90011C4E9021162
:102EA000216112F07BFC2046044A0549BDE8104030
:102EB00012F01EBC6040003020E100200000002025
:102EC000512D0024704700BF30B5D0F80C44ADF24E
:102ED000044D3CB3D0F80824D0F804349A4224D0EE
:102EE000EC460021E6460131D0F80834D0F804243D
:102EF0009B1AC3F30903002BF6D0D0F804345A1CF4
:102F00000344C2F309021D79C0F80424D0F8082450
:102F1000D0F804340EF8015B9A42E4D1D0F81024C2
:102F20006046A0470DF2044D30BD0021EC46F5E7A8
:102F3000F8B50B68002B41D00E4600210546214C08
:102F40000F465B1A032B30D96B5C294413F00E0F2C
:102F50002BD003F00F03234493F818382BB3013B15
:102F6000481C50FA83F0D4F80434D4F80824013B08
:102F70009B1AC3F3090313B311F801CFD4F8043437
:102F8000D4F80824013B9B1AC3F30903002BF5D0A6
:102F9000D4F80834814203F101022344C2F3090248
:102FA00083F804C0C4F80824DDD104372046FFF7B5
:102FB0008BFF3368BFB29F423946C2D3F8BDE3707E
:102FC000F3E700BF34E10020024BDB780BB1FFF7E1
:102FD000AFBF704734E10020054B00B5DB7883B00C
:102FE000019113B101A9FFF7A3FF03B05DF804FB42
:102FF00034E10020CBB230B5022B174C83B04FF038
:103000000005ADF804100460A4F80110E57017D0B5
:10301000A3F101020125114B2046B2FA82F21D7084
:103020005209114600920DF021FE0A2002F040F9EB
:10303000009A0B49204603B0BDE830400DF09CBE1D
:103040000A2002F035F92A460649074803B0BDE8D0
:103050003040FDF78BBF00BF34E10020D4060120D3
:10306000C92F0024D92F00246040003003684FF09E
:10307000010CD3F8040483F803C0C3F80C14C3F89C
:103080001024C3F8080470470368D878704700BF5D
:103090000368D3F80424C3F80824704730B54FF40C
:1030A0004072114C114BA4F8012004F61805104A87
:1030B00003F1100E04F6280CC4F838284FF60F025E
:1030C000A4F83C28072284F83E280FCB85E80F009F
:1030D0009EE80F008CE80F002046064A0649BDE82E
:1030E000304012F005BB00BF34E10020BC67012472
:1030F00080707FF000000020C52E002484460FC998
:103100008CE80F009CF800300B2B30D09CF801208D
:103110000F2A2CD8022900B591B041D0032902D042
:10312000012900D000210C91DCF80810012902D0FF
:10313000022918BF00210D91DCF80C10022904D0DF
:10314000032902D0012918BF00210A2B0E910FD8A4
:103150005B4800EB8320CCF810000A2B17D8DFE87F
:1031600003F0A0928476685A4C3E302209007047E2
:103170000020F0E7534BD3F8E01041F48061C3F82E
:10318000E010D3F8E03003F480630A930A9B012334
:103190000BA993400B9304F0C3F911B05DF804FB45
:1031A00011210C91C0E7474BD3F8E01041F40071B6
:1031B000C3F8E010D3F8E03003F400730993099BDF
:1031C000E5E7404BD3F8E01041F48071C3F8E0101C
:1031D000D3F8E03003F480730893089BD7E7394BAA
:1031E000D3F8E01041F08001C3F8E010D3F8E030EC
:1031F00003F080030793079BC9E7324BD3F8E01035
:1032000041F04001C3F8E010D3F8E03003F0400390
:103210000693069BBBE72B4BD3F8E01041F020014F
:10322000C3F8E010D3F8E03003F020030593059BCA
:10323000ADE7244BD3F8E01041F01001C3F8E010E3
:10324000D3F8E03003F010030493049B9FE71D4B79
:10325000D3F8E01041F00801C3F8E010D3F8E030F3
:1032600003F008030393039B91E7164BD3F8E01098
:1032700041F00401C3F8E010D3F8E03003F0040398
:103280000293029B83E70F4BD3F8E01041F0020159
:10329000C3F8E010D3F8E03003F002030193019B80
:1032A00075E7084BD3F8E01041F00101C3F8E010D6
:1032B000D3F8E03003F001030093009B67E700BF01
:1032C000000002580044025810B592B0ADF8041046
:1032D0000180C9B2149C0B29C460C0E901233FD00E
:1032E00090F801C0BCF10F0F3AD8022A3FD0032A50
:1032F00002D0012A00D000220E92012B02D0022B14
:1033000018BF0023022C0F932CD0032C2AD0012CA1
:1033100028D000230A29109327D85C4A02EB812287
:1033200002610A2914D8DFE801F0A39587796B5D63
:103330004F4133250600564BD3F8E01041F480612D
:10334000C3F8E010D3F8E03003F480630C930C9BD7
:1033500001230DA9104603FA0CF30D9304F0E0F8D5
:1033600012B010BD0A291094D7D90022D8E7112233
:103370000E92C2E7464BD3F8E01041F40071C3F857
:10338000E010D3F8E03003F400730B930B9BDFE7FE
:103390003F4BD3F8E01041F48071C3F8E010D3F84C
:1033A000E03003F480730A930A9BD1E7384BD3F8DB
:1033B000E01041F08001C3F8E010D3F8E03003F0F2
:1033C00080030993099BC3E7314BD3F8E01041F028
:1033D0004001C3F8E010D3F8E03003F04003089355
:1033E000089BB5E72A4BD3F8E01041F02001C3F861
:1033F000E010D3F8E03003F020030793079BA7E722
:10340000234BD3F8E01041F01001C3F8E010D3F8DB
:10341000E03003F010030693069B99E71C4BD3F8AA
:10342000E01041F00801C3F8E010D3F8E03003F0F9
:1034300008030593059B8BE7154BD3F8E01041F08B
:103440000401C3F8E010D3F8E03003F00403049360
:10345000049B7DE70E4BD3F8E01041F00201C3F866
:10346000E010D3F8E03003F002030393039B6FE70F
:10347000074BD3F8E01041F00101C3F8E010D3F896
:10348000E03003F001030293029B61E70000025861
:103490000044025808B5012143780069994089B277
:1034A00004F040FA003818BF012008BD01230A4685
:1034B0004178006903FA01F189B204F039BA00BF1A
:1034C0002DE9F84F04460E461746984600F18C0544
:1034D000284606F039FF2028FAD120682E4B012813
:1034E000636106D0022843D000283ED00120BDE809
:1034F000F88F2423A3614023002004F11409E36121
:103500004FF480632062A0636362C4E90A00C4E9E7
:103510000C00C4E91000484602F05AFE08B1FFBE94
:10352000FEE7C4F8C490E564EFF3108A72B6DFF8E2
:10353000709094F900300A9ADFF868B089F800308A
:10354000CBF80020E3680B9A144C22609BB9710001
:1035500043463A46284689B205F054FC90B9BAF180
:10356000000FC4D162B6BDE8F88F2223A361C2E781
:103570004A23A361BFE742463946284605F0A4FD29
:103580000028ECD0FF23012089F800300023CBF87D
:1035900000302360E3E700BFA00002407CE9002088
:1035A00078E9002074E900202DE9F84F04460E4622
:1035B0001746984600F18C05284606F0C5FE2028DF
:1035C000FAD120682D4B0128636106D0022842D031
:1035D00000283DD00120BDE8F88F2323A3610020FF
:1035E0004FF4806304F11409A0636362C4E9070027
:1035F000C4E90A00C4E90C00C4E91000484602F01E
:10360000E7FD08B1FFBEFEE7C4F8C890E564EFF33C
:10361000108A72B6DFF86C9094F900300A9ADFF8DD
:1036200068B089F80030CBF80020E3680B9A144C9E
:1036300022609BB9710043463A46284689B205F09C
:10364000A1FC90B9BAF1000FC5D162B6BDE8F88F00
:103650002123A361C3E74923A361C0E7424639465A
:10366000284605F0C1FD0028ECD0FF23012089F891
:1036700000300023CBF800302360E3E7A0000240D5
:103680007CE9002078E9002074E9002010B50023CF
:1036900086B0122204460493CDE902230368022B6C
:1036A0001FDC002B01DB0423059323790A2B1FD891
:1036B000114800EB83206279012301A99340019313
:1036C00003F02EFFA3790A2B14D80B4800EB8320BC
:1036D000E279012301A99340019303F021FF06B091
:1036E00010BD032BE1D10623059323790A2BDFD9E3
:1036F0000020E0E70020EBE700000258634A03687F
:10370000934210B58CB028D0614A934258D0614A98
:10371000934200F09480604A934201D00CB010BDF7
:103720005E4C5F48D4F8E03043F00203C4F8E03068
:10373000D4F8E03003F002030A930A9BFFF7A6FFD8
:10374000D4F8F43043F08003C4F8F430D4F8F43003
:1037500003F080030B930B9BE0E7504C5148D4F8E7
:10376000E03043F00203C4F8E030D4F8E03003F076
:1037700002030193019BFFF789FFD4F8E830002290
:103780001F2043F400131146C4F8E830D4F8E830A1
:1037900003F400130293029BD4F8D83043F00103E2
:1037A000C4F8D830D4F8D83003F001030393039B56
:1037B00002F05CFB1F200CB0BDE8104002F094BB8F
:1037C000364C3948D4F8E03043F08003C4F8E03098
:1037D000D4F8E03003F080030493049BD4F8E03085
:1037E00043F00203C4F8E030D4F8E03003F0020301
:1037F0000593059BFFF74AFFD4F8E830002221200B
:1038000043F480031146C4F8E830D4F8E83003F4F8
:1038100080030693069BD4F8D83043F00103C4F824
:10382000D830D4F8D83003F001030793079B02F097
:103830001DFB21200CB0BDE8104002F055BB1B4819
:10384000FFF724FF154B00224820D3F8E84011462B
:1038500044F40004C3F8E840D3F8E84004F400045A
:103860000894089CD3F8D84044F00104C3F8D84029
:10387000D3F8D83003F001030993099B02F0F6FA5C
:1038800048200CB0BDE8104002F02EBB00540040B0
:1038900000580040005C0040001C005800440258E2
:1038A00020EC002080E9002060EA002040EB0020AE
:1038B0002DE9F0431A4B87B000254FF010099E46C2
:1038C000EC46184BFF22E04667461A700EF11806C8
:1038D0000EF13004CDE90055CDE90255ADF8009068
:1038E000BCE80F00CDE90455AEE80F009CE80300EA
:1038F0000095ADF800908EE80300B8E80F000FC601
:103900009CE803000095ADF8009086E803000FCF17
:103910000FC49CE8030084E8030007B0BDE8F0830F
:103920002400002078E9002010B5EFF3108472B66F
:10393000084B1A78120602D504B962B610BD187881
:10394000054B40B2C0EBC00003EB4010143003F055
:1039500091FAF1E778E9002080E90020014805F0BC
:10396000B1BC00BF0CEA0020014805F0ABBC00BFB1
:10397000ECEA0020014805F0A5BC00BFCCEB00201C
:103980002DE9F04182B0EFF3108772B61C4AFF2197
:103990001C4C1368217023B1002111601A4A106871
:1039A000984723781B0617D5DFF864800025174E4B
:1039B000444662685AB16369304693B923690193FA
:1039C000E368009323892188FFF77AFD90B10135E0
:1039D0001834E036032DECD107B962B602B0BDE869
:1039E000F081D4E90331CDE9003123892188FFF743
:1039F000DBFDEBE705EB450508EBC5056860EBE78C
:103A000074E9002078E900207CE9002080E90020AA
:103A1000240000202DE9F04182B0EFF3108772B648
:103A20001C4AFF211C4C1368217023B10021116036
:103A30001A4A1068984723781B0617D5DFF8648068
:103A40000025174E444662685AB16369304693B9FF
:103A500023690193E368009323892188FFF730FDF0
:103A600090B101351834E036032DECD107B962B6B8
:103A700002B0BDE8F081D4E90331CDE900312389FA
:103A80002188FFF791FDEBE705EB450508EBC50540
:103A90006860EBE774E9002078E900207CE9002009
:103AA00080E90020240000202DE9F04182B0EFF3EE
:103AB000108772B61C4AFF211C4C1368217023B179
:103AC000002111601A4A1068984723781B0617D501
:103AD000DFF864800025174E444662685AB1636976
:103AE000304693B923690193E368009323892188C1
:103AF000FFF7E6FC90B101351834E036032DECD128
:103B000007B962B602B0BDE8F081D4E90331CDE96E
:103B1000003123892188FFF747FDEBE705EB4505D9
:103B200008EBC5056860EBE774E9002078E9002040
:103B30007CE9002080E90020240000202DE9F041EC
:103B400082B0EFF3108772B61C4AFF211C4C136839
:103B5000217023B1002111601A4A10689847237818
:103B60001B0617D5DFF864800025174E44466268AF
:103B70005AB16369304693B923690193E3680093AE
:103B800023892188FFF79CFC90B101351834E03679
:103B9000032DECD107B962B602B0BDE8F081D4E9DB
:103BA0000331CDE9003123892188FFF7FDFCEBE7E4
:103BB00005EB450508EBC5056860EBE774E90020F7
:103BC00078E900207CE9002080E900202400002022
:103BD0002DE9F04182B0EFF3108772B604F0D4FD06
:103BE0001D4A1E4CFF21136821702BB1002111606A
:103BF00001211B4A1068984723781B0617D5DFF868
:103C000068800025174E444662685AB163693046A1
:103C100093B923690193E368009323892188FFF70F
:103C20004FFC90B101351834E036032DECD107B9C3
:103C300062B602B0BDE8F081D4E90331CDE90031CC
:103C400023892188FFF7B0FCEBE705EB450508EB7E
:103C5000C5056860EBE700BF74E9002078E9002043
:103C60007CE9002080E90020240000202DE9F043B9
:103C70000D6885B0404EC5EBC503032D4FEA4317D1
:103C800006EB4313036041DCCA680C46012A3DD8A9
:103C90004FEAC5084CD020689C466168A8EB05092E
:103CA000A2680DF1100EE36806EB4919ACE80F00AD
:103CB000324B227C8CF80020D9F808C00FCB0EE9DB
:103CC0000F000EEB8503BCF1010F53F8103CC9F84F
:103CD0008C3032D0BCF1020F43D0BCF1000F36D093
:103CE000227C8C37A8EB050500233744520006EBF5
:103CF000451601213846C6F8AC30C6E92521C6E98B
:103D00002733C6E9293304F03FFD18B1012005B07F
:103D1000BDE8F0830146384606F01AFB0028F5D1CD
:103D20000146384606F03EFB003818BF0120EEE79A
:103D30000A7C103A672AAED9E8E701F061FC104B23
:103D400098420CBF0F4B104BC9F89030C8E701F0F8
:103D500057FC0B4B98420CBF0C4B0D4BC9F89030E5
:103D6000BEE701F04DFC064B98420CBF094B0A4BD5
:103D7000C9F89030B4E700BF80E90020DC67012477
:103D8000000E27072D0FB0303211D0205F43906016
:103D90008A62E030200BA0101A0980102DE9F04152
:103DA000D0F8008082B00D4617461E4608F18C04FC
:103DB000204606F0C9FA2028FAD1D8F80C3073B999
:103DC0006D002046089C33463A46A9B2009404F0A0
:103DD00031FD003818BF012002B0BDE8F081089B1A
:103DE00032463946204604F0E3FEF2E700682DE94A
:103DF000F0410468032CDDE9067821D0124D2D78BE
:103E00002D0617D48E469C46EFF3108372B60F4DE5
:103E100004EB4404002025F8341005EBC404626070
:103E2000A4F808C06061C4E903780BB962B618460B
:103E3000BDE8F081CDE90678BDE8F041FFF740BB71
:103E40000120BDE8F08100BF78E9002024000020B7
:103E5000094B6FF0F41110225960C3F8E4101A7482
:103E600083F8F020C3F8C41183F8D021C3F8A4125A
:103E700083F8B022704700BF80E9002030B50023EE
:103E800095B04FF48071062204460B93069213936B
:103E9000CDE90C13CDE90E33CDE9113301F0B2FBBE
:103EA00007282BD004F1100541F2883206A92846D4
:103EB00007F0EEFB28B10123184684F85C3015B0FA
:103EC00030BD0222022306A92846CDE90023102294
:103ED0000123CDE9022300224FF48003CDE904231E
:103EE00005224FF0807306926A460F9341F28833A1
:103EF00007F03AFD0028DED115B030BD03230120C4
:103F000084F85C3015B030BD70B50023A4B04FF01C
:103F100080724FF480750446ADF806300D93CDE9FC
:103F200010320122CDE90E53CDE91223CDE914332D
:103F3000002943D0F02300F1100508AEADF806309B
:103F4000C02341F2883231462846089307F0A0FB8F
:103F500028B10123184684F85C3024B070BD41F2CA
:103F600088320DF10601284607F0FCFB03460028C5
:103F7000EFD105224FF480711E93284616924FF020
:103F800080721B9321931F9202AA9FED1F7BCDE9A4
:103F90001C13CDE922338DED027B9FED1D7B41F299
:103FA000883316A98DED047B9FED1B7B8DED067B81
:103FB00007F0DAFC0028CCD124B070BD00F1100568
:103FC00008AE612341F2883231462846089307F053
:103FD0005FFB0028BDD141F288320DF10601284671
:103FE00007F03EFC0028B4D1BDF80630204623F08F
:103FF000780343F04003ADF80630FFF73FFF002899
:104000009ED0A6E7AFF30080000000000100000092
:10401000100000000100000000000000000040004F
:104020002DE9F04F00234FF4807501264FF0807882
:1040300004462DED028BABB08DF80730139321931E
:10404000299314950E96CDF85C80CDE91533CDE912
:104050001863CDE91A33CDE92253CDE92433CDE9F4
:10406000273306231C9301F0CDFA072808D004F16A
:10407000100741F288321CA9384607F009FB40B10D
:104080000123184684F85C302BB0BDEC028BBDE8F0
:10409000F08F4FF0020A4FF0020B4FF0050941F28A
:1040A000883308AA1CA93846CDF89480CDF87090C2
:1040B0009FED2F8BCDE908AB4FF0000A4FF4800B3A
:1040C0008DED0A8BCDE90CAB07F04EFC0028D7D163
:1040D00041F2883238460EA907F0DAFA0028CFD12B
:1040E000402341F288320DF1070138468DF8073040
:1040F00007F038FB0028C3D141F288330EA902AA89
:104100003846CDF83890CDF85C809FED1B7BCDE92B
:1041100006AB8DED027B9FED1A7B8DED047B07F0E6
:1041200023FC03460028ABD1CDF870904FF0010975
:10413000CDF894804FF00008219308AA29931CA978
:1041400038462295CDE92333CDE9273341F2883330
:104150008DED0A8BCDE90CABCDE9088907F004FCA5
:10416000002891D0304684F85C608DE7AFF3008082
:1041700010000000010000004000000043000000AB
:1041800000800000010000002DE9F04F00234FF4F3
:10419000807601254FF0807804462DED028BABB080
:1041A000CDE9153313932193299314960E95CDF8E9
:1041B0005C80CDE91853CDE91A33CDE92263CDE90E
:1041C0002433CDE9273306231C9301F01BFA07287B
:1041D00008D004F1100741F288321CA9384607F0D4
:1041E00057FA40B10123184684F85C302BB0BDEC7F
:1041F000028BBDE8F08F4FF0020A4FF0020B4FF038
:10420000050941F2883308AA1CA93846CDF89480E4
:10421000CDF870909FED308BCDE908AB4FF0000AE0
:104220004FF4800B8DED0A8BCDE90CAB07F09CFBB6
:104230000028D7D141F2883238460EA907F028FA73
:104240000028CFD1402341F288320DF107013846D2
:104250008DF8073007F086FA0028C3D19DF80730A3
:1042600008AA0C90FF2008934FF400430EA90B9569
:10427000CDF83890CDF85C80CDE909034FF4800388
:1042800038460D9341F2883307F06EFB0346002851
:10429000A8D10022219329931CA938462296CDF853
:1042A0007090CDF89480CDE92333CDE927330123F5
:1042B000CDE9022341F2883302AA8DED048BCDE9CA
:1042C00006AB07F051FB002890D0284684F85C50DC
:1042D0008CE700BFAFF30080100000000100000079
:1042E00070B50122AAB004460D465F48C02103F014
:1042F0001FFB00265D4B06965B4895FAA5F5CDE9B8
:104300000466D3F8E02042F02002C3F8E020C02287
:10431000D3F8E03003F0200301930123019902A9AF
:10432000CDE9022303F0FCF8142001F075FD3246BC
:10433000C0214D4803F0FCFA142001F06DFD01226C
:10434000C021494803F0F4FA142001F065FD01236F
:10435000474AE6612261C4E90533002D77D0B5FAFA
:1043600085F1013900234FF4807604F11005C4E98A
:1043700008162846C4E90B3307F01CF930B10123B5
:104380001D4684F85C3028462AB070BD662316901E
:10439000179041F2883213900EA91B900E93CDE92D
:1043A0001460CDE91900284607F072F90028E6D11B
:1043B00099230EA941F2883228460E9307F068F936
:1043C0000028DCD105230121249008AA2190279000
:1043D0001C934FF08073CDE92260CDE928001020B6
:1043E000259341F28833CDE90A019FED1D7B002022
:1043F0004FF48001CDE90C011CA928468DED087B06
:1044000007F0B2FA0028BAD12046FFF7BDFE002817
:10441000B5D1284607F02AF905460028AFD12379FF
:104420000A2B18D963790121994003F0B3F9A379D4
:104430000A2B0ED80F4800EB83200126E17906FAFB
:1044400001F103F0A7F9266684F864609BE71F2159
:1044500088E70020F1E7074800EB8320E2E700BF90
:10446000000000000100000000140258004402583F
:1044700000500052000002582DE9F041684CA2B0F3
:104480000D46046001F0BEF807284BD0286823468B
:10449000AA68696807C3AA89184620F8042B267BF6
:1044A000677B07F0E3F8002834D1012E94F86430DC
:1044B00014BF4FF480154FF400052366002B39D04C
:1044C000584B95FAA5F523610123C4E90533002370
:1044D000E361002D6ED0B5FA85F1013900234FF468
:1044E00080785148C4E90818C4E90B3307F062F832
:1044F00080B966230B90139041F2883206A9069387
:10450000CDE90C80CDE90E00CDE91100464807F059
:10451000BFF8A0B101231D4684F85C30284622B0C4
:10452000BDE8F08101250323284684F85C3022B0E1
:10453000BDE8F08129462046FFF7D2FEC0E7992367
:1045400041F2883206A93848069307F0A1F80028FE
:10455000E0D105231C9019906A4614934FF08073A4
:10456000219014A91D9341F288339FED277BCDE95B
:104570001A80CDE91F008DED007B9FED257B2A4839
:104580008DED027B9FED247B8DED047B07F0ECF934
:104590000028BFD131462248FFF7B6FC0028B9D128
:1045A0001F48FFF73DFD05460028B3D127B1022380
:1045B0002366B3E71F2191E7EB230026002718901D
:1045C00014934FF440631F9006AA1B934FF40053BB
:1045D000209014A917934FF4404313481C93A02331
:1045E000CDF868801693062319934FF080532193DA
:1045F0004FF04073CDE906671D9307F02DFA0028B0
:10460000D5D087E7AFF30080000000000100000074
:104610001000000001000000000000000000400049
:1046200000ED00200050005210ED00205E4B0268AB
:104630002DE9F0419A428CB04FF00004CDE90744D7
:10464000CDE909440B9402D00CB0BDE8F081574B82
:10465000574DD3F8D420574F42F48042564EDFF8DE
:104660005C81C3F8D420D3F8D42002F480420092B5
:10467000009ADA6F42F48042DA67DA6F22F48042FD
:10468000DA67D3F8E02042F04002C3F8E020D3F824
:10469000E02002F040020192019AD3F8E02042F0BB
:1046A0002002C3F8E020D3F8E02002F020020292BA
:1046B000029AD3F8E02042F01002C3F8E020D3F8C9
:1046C000E02002F010020392039AD3F8E02042F0B7
:1046D0000202C3F8E020D3F8E03003F002030493B1
:1046E000049B22E014F0FC0252D103F1200155F8A2
:1046F000211008780A2839D891F801C001210992BF
:1047000007EB802201FA0CF107910221CDF8148009
:10471000089103210A910CA90B4413F81C3C07A92A
:10472000104601340B9302F0FBFE2A6EE3B2002A1E
:10473000D8D0052B2CD803F11A0255F822100A788C
:104740000A2A18D9497801228A40022107920022B8
:10475000CDE9081203210A910CA90B4496E8030045
:104760000590ADF8181013F81C3CD8E748780121E3
:1047700009928140C8E74878012107EB82228140F5
:10478000022007910021CDE9080103210A91E3E706
:1047900000225C20114601F069FB5C2001F0A4FBC3
:1047A0000CB0BDE8F08100BF005000520044025838
:1047B00000ED002000000258206801240A0A090ABE
:1047C0000268F8B5194B9A4200D0F8BD184A002487
:1047D000184F0125D2F8D430174E23F48043C2F885
:1047E000D43011E014F0FC0F1BD157F821301A78A7
:1047F0000020597801340A2A05FA01F198BF06EB26
:10480000822089B202F0C6FFE3B23A6E03F12001C2
:10481000002AE7D0052B03F11A0202D857F82230FC
:10482000E5E75C20BDE8F84001F06CBB00500052A9
:104830000044025800ED002000000258014807F033
:1048400097B900BF10ED00200E4B6FF0F41200215D
:10485000981C30B41C1D9D1D9A605D671C67C3E9E0
:104860000022C3E9181103F10A0203F1080130BC68
:10487000C3E91A30C3E91E12C3E92030C3E922128A
:10488000704700BF00ED002038B5036871B9026AB7
:1048900000F1280500F5AC74012A0CBF002140216D
:1048A0008BBB1D4B5722C0F858310DE0426A00F116
:1048B000C00500F5E874012A0CBF00214021EBB1CE
:1048C000164B5A22C0F8D03100232046C4E90121FA
:1048D0004FF480524FF48061636262614FF4804212
:1048E000C4E903314FF48073C4E906234FF4003365
:1048F000236201F06DFC58B1FFBEFEE7084B582261
:10490000C0F8D031E0E7074B5922C0F85831DBE757
:10491000C5E92044A56338BD100002407000024084
:1049200028000240580002402DE9F043C28889B0B7
:1049300081468388ADF800200089B9F80A10B9F8DB
:104940000C20ADF80230D9F81830ADF80400ADF8FD
:104950000610ADF80820002B3FD0D9F81C70B7FA2C
:1049600087F77F09012502236C460DF10A06DFF85F
:1049700070800695CDE9043599F8042020788242AC
:10498000627818D0D9F80010F9B1012902D1F8B134
:104990000A2107910A2805FA02F203A994BF08EB3D
:1049A00080200020039202F0BBFD0234A642E3D136
:1049B00009B0BDE8F08399F805109142E2D1002FCB
:1049C000F3D0D9F800100029DFD106210791E1E7E3
:1049D000022A0CBF08210A21DBE70127C2E700BF3A
:1049E00000000258534A0368934230B505468BB025
:1049F00055D02032934252D04F4A934204D02032B5
:104A0000934201D00BB030BD4C4C4D48D4F8E0304F
:104A100043F00103C4F8E030D4F8E03003F00103C0
:104A20000593059BD4F8E03043F00803C4F8E03068
:104A3000D4F8E03003F008030693069BD4F8E03086
:104A400043F04003C4F8E030D4F8E03003F0400312
:104A50000793079BD4F8F03043F40003C4F8F03018
:104A6000D4F8F03003F400030893089BFFF75CFFD1
:104A7000D4F8D830296843F001032F4A3048C4F8ED
:104A8000D830891AD4F8D83018BF012103F00103B7
:104A90000993099B0BB0BDE83040FFF7F5BE274CEA
:104AA0002848D4F8E03043F00103C4F8E030D4F8EB
:104AB000E03003F001030093009BD4F8E03043F0B2
:104AC0001003C4F8E030D4F8E03003F01003019391
:104AD000019BD4F8E03043F04003C4F8E030D4F850
:104AE000E03003F040030293029BD4F8F03043F42B
:104AF0008003C4F8F030D4F8F03003F4800303935B
:104B0000039BFFF711FFD4F8D830296843F0010365
:104B1000084A0C48C4F8D830891AD4F8D83018BFDD
:104B2000012103F001030493049B0BB0BDE8304066
:104B3000FFF7AABE04580140045C0140004402583B
:104B4000ECEF002090ED0020014802F093B900BF87
:104B5000E8EE0020014802F08DB900BF60EF0020B0
:104B6000014802F087B900BF44F10020014802F07B
:104B700081B900BFBCF100202DE9F0470C684FF46B
:104B80001776774F86B004FB06F6012C07EB060874
:104B9000C0F8008000F39F8000230D468E46C44677
:104BA000C8F85032C8E9923369A3D3E900236AA157
:104BB000D1E90001CDE9022306AB03EB8403CDE983
:104BC000040153F810AC53F8089CBEE80F00ACE8A1
:104BD0000F00BEE80F00ACE80F009EE80300C8F825
:104BE00028A0C8F8C0908CE803002B69042B0CD8CF
:104BF000DFE803F078828C9603004FF41773594A6C
:104C000003FB04739A64C3F8E020AA692B6A002AA4
:104C100042D0002B4FF4177308BF022203FB04732A
:104C200018BF0322DA6201221A63EA696B6A002A5A
:104C30003FD1191E4FF4177318BF012103FB0473F2
:104C4000C3E931126969012943D0022947D10325FB
:104C500000214FF4177306F128002A46019103FB47
:104C60000473002438445C645C63DC65C3F8DC4096
:104C7000C3F8CC40C3F8F440C3E90F44C3E915447A
:104C8000C3E93544C3E93B44022309F077FB0199AA
:104C900000284FD0FFBEFEE7191E4FF4177318BF50
:104CA000012103FB0473C3E90B12EA696B6A002A52
:104CB000BFD0002B4FF417730CBF0222032203FB5B
:104CC0000473C3F8C4200122C3F8C820696901290C
:104CD000BBD10225BDE7012006B0BDE8F087002565
:104CE0002946B6E74FF417734FF4FA5203FB0473E7
:104CF0009A64C3F8E02088E74FF417734FF47A52B0
:104D000003FB04739A64C3F8E0207EE74FF4177343
:104D10004FF4FA4203FB04739A64C3F8E02074E78B
:104D20004FF417734BF6803203FB04739A64C3F895
:104D3000E0206AE706F1C00002232A46384409F061
:104D40001DFB0028C8D0FFBEFEE700BFAFF3008008
:104D500004580140045C014024580140245C014097
:104D600090ED0020007701000068704703681B6920
:104D7000042B05D8044A02EB830393ED000A704725
:104D80009FED020A704700BF2868012400803B475E
:104D9000064B6FF0F4124FF60B71C3E901229981B3
:104DA000A3F86812C3E99822704700BF90ED002075
:104DB000714A036811698B4200B587B04BD0516FBF
:104DC0008B4200F0B680D2F8D8108B4200F0B3804E
:104DD000D2F83C118B4200F0B080B3F1804F1ED06E
:104DE000664A93420DD0664A934200F0A880654A15
:104DF000934200F0B280644A93421ED007B05DF83F
:104E000004FB624BD3F8E82042F00202C3F8E8202A
:104E1000D3F8E83003F002030293029BEEE75B4B0A
:104E2000D3F8E82042F00102C3F8E820D3F8E830D4
:104E300003F001030193019BE0E7544BD3F8E82012
:104E400042F01002C3F8E820D3F8E83003F0100372
:104E50000593059BD2E700206421B3F1804F01FB4D
:104E60000022127B1ED045498B4235D044498B42EB
:104E700048D044498B42BED1444BD3F8E81041F0AE
:104E80000801C3F8E810D3F8E83003F008030493EE
:104E9000049B002AB2D0322000220F2100F0E6FF4E
:104EA000322014E0394BD3F8E81041F00101C3F887
:104EB000E810D3F8E83003F001030193019B002AC6
:104EC0009CD01C2000220F2100F0D0FF1C2007B036
:104ED0005DF804EB01F008B82C4BD3F8E81041F072
:104EE0000201C3F8E810D3F8E83003F0020302939C
:104EF000029B002A82D01D2000220F2100F0B6FF65
:104F00001D20E4E7214BD3F8E81041F00401C3F879
:104F1000E810D3F8E83003F004030393039B002A5E
:104F20003FF46CAF1E2000220F2100F09FFF1E20D7
:104F3000CDE7012090E702208EE703208CE7134B9A
:104F4000D3F8E82042F00402C3F8E820D3F8E830B0
:104F500003F004030393039B50E70C4BD3F8E820C2
:104F600042F00802C3F8E820D3F8E83003F0080361
:104F70000493049B42E700BF48F200200004004075
:104F800000080040000C004000100040004402589F
:104F90000F4B026819698A420BD0596F8A4211D0AF
:104FA000D3F8D8108A420FD0D3F83C118A420DD0E2
:104FB00070470021642202FB0133DA6D002AF7D02A
:104FC000186E10470121F5E70221F3E70321F1E70D
:104FD00048F20020014809F02BBD00BF58F2002024
:104FE000014809F025BD00BFBCF20020014809F0CE
:104FF0001FBD00BF20F30020014809F019BD00BF0C
:1050000084F30020F0B54FF0640C0F682E4D8DB086
:105010000CFB07FC032F05EB0C06066047DC0B4678
:105020000868344649689A6807C41B7B237004AC3F
:105030007268264B002A4FF00002726118BF1022DE
:10504000B2610FCB84E80F000CAB03EB870353F87E
:10505000203CB3F1804F336124D01D4A934221D0CC
:1050600030890CF1100464230021802203FB0753D4
:105070002C44C3E907019A62204609F09BFA0346D3
:1050800000B1FEE74FF4805208A92046099301932E
:105090000892CDE90A33CDE9023309F0F5FB034666
:1050A00040B1FEE7642303FB07539868D9E701206A
:1050B0000DB0F0BD01A920460193039309F062FDF4
:1050C0000028F5D0FEE700BF48F20020EC6701247D
:1050D000000C0040006808B5037B10302BB109F0CC
:1050E00077FB003818BF012008BD09F019FB003814
:1050F00018BF012008BD00BF10B5046800F080FA99
:10510000400023699B6A0133B0FBF3F010BD00BF80
:1051100003681B69586A70470C4B00224FF0FF313F
:105120001A739960D96683F87020C3F8D01083F899
:10513000D420C3F8341183F83821C3E90022C3E92D
:105140001922C3E93222C3E94B22704748F20020FA
:10515000704700BF08B500F04DFEBDE8084000F004
:105160004DBF00BF064808B503680BB102F0E6FC6E
:10517000044803681BB1BDE8084005F0EFB908BD5D
:1051800000FE0020F0F80020064808B503680BB1C7
:1051900002F0D4FC044803681BB1BDE8084005F0E8
:1051A000DDB908BD00FE0020F0F80020064808B573
:1051B00003680BB102F0C2FC044803681BB1BDE8F0
:1051C000084005F0CBB908BD00FE0020F0F8002033
:1051D000364BDA6A520062D59A6A9A6A9A6A9B6A70
:1051E000180600D500BE314B9B6A990600D500BE5B
:1051F0002E4B9B6ADA0600D500BE2C4B9B6A1B0720
:1052000000D500BE294B9B6A980700D500BE274BEE
:105210009B6AD90700D500BE244B9B6A1A0400D5AF
:1052200000BE224B9B6A9B0400D500BE1F4B9B6AAD
:10523000D80400D500BE1D4B9B6A190500D500BEE1
:105240001A4B9B6A5A0500D500BE184B9B6A9B05FA
:1052500000D500BE154B9B6AD80500D500BE134B88
:105260009B6A990100D500BE104B9B6ADA0100D5FC
:1052700000BE0E4B9B6A1B0300D500BE0B4B9B6A06
:10528000580300D500BE094B9B6A990300D500BEA8
:10529000064B9B6ADA0306D400BE00BEFEE7DB6A5B
:1052A0009B07FAD5F8E700BEF6E700BF00ED00E087
:1052B00000F0B2BD0A4B9B6803F17843B3F5003FA1
:1052C0000BD3084B986848B19868012806D09868B5
:1052D000022803D09B68032070470120704700BF5D
:1052E00000ED00E0000080382DE9F041CEB004462A
:1052F0004C2200210AA810F051FA2022002102A815
:1053000010F04CFAC02200211EA810F047FA02202B
:1053100006F06AF82368012B4FF0000354D0584A76
:1053200002250193C820D16A564B21F00101D162B8
:10533000D26A02F0010201929A6942F440429A61F3
:105340009B6903F440430193019B4E4A93699B047C
:10535000FCD54D490224002201268B6A04274FF018
:10536000080823F0030323438B62052316900AA841
:1053700018934FF480331096179419941597CDF81D
:105380006880CDE91B222122CDE91344CDE90A230F
:1053900006F08EFD00B1FEE73F220323294602A856
:1053A000CDE9022300220823CDE904234022402333
:1053B000CDE9062340234FF48062CDE9082307F0AE
:1053C00011F90346B8B1FEE72E4A04250093F020F8
:1053D00091692B4B41F440419161926902F4404242
:1053E0000092DA6A42F00102DA62DB6A03F001033A
:1053F0000093009BA9E7202226932E9380212C92D4
:105400004FF48052319306253F931EA8279236927F
:105410004FF4803225914FF440113292479200228E
:105420002895802540911021CDF888802B972096D3
:105430002A91CDE92F3440F2271329934FF480634A
:105440002D930023CDE92346CDE93C234FF480740E
:105450000C2344940224219307A3D3E90023CDE92C
:105460003445CDE91E2307F0A9FB00B1FEE705F0A6
:10547000DFFF4EB0BDE8F0810F130F030000000006
:1054800000040058004802580044025870B584B027
:10549000012400F061FD4FF480764FF04052194B2B
:1054A00068460025ADF800400396CDE9012300F0E1
:1054B00071FD19224FF0404368468DF80820019392
:1054C0008DF80F40ADF80D608DF801408DF80A5051
:1054D00000F060FD02230B2268468DF80F508DF816
:1054E00001304FF062538DF808200193ADF80D4064
:1054F0008DF80A4000F04EFD042000F03BFD04B0A2
:1055000070BD00BF0E00010330B50D46044685B0E6
:10551000D1E9000184E8030000F03CFCAB79002BEA
:1055200063D00DF045FEFEF7C3F90CF0B7FA0DF0AD
:10553000E3FA2B795BB3304C636913F4803326D1E3
:10554000C4F88430BFF34F8FD4F8801043F6E07E68
:10555000C1F34E3CC1F3C9014FEA4C1C0CEA0E00EA
:105560000B4640EA8372013BC4F860225A1CF8D112
:10557000ACF1200C1CF1200FF0D1BFF34F8F636909
:1055800043F480336361BFF34F8FBFF36F8F6B7949
:10559000B3B1194A536913F4003311D1BFF34F8FDC
:1055A000BFF36F8FC2F85032BFF34F8FBFF36F8FCF
:1055B000536943F400335361BFF34F8FBFF36F8FD1
:1055C0004FF0FF3200230024002569460B48029269
:1055D0008DF80C30CDE90045FFF714FD0748FFF7C3
:1055E00079FD0BF0F7FB05B030BD2046FFF77CFEE0
:1055F0002046FFF74BFF94E700ED00E0D8F30020D2
:1056000007F058B91C4B9B6803F17842B2F5003F94
:1056100025D3B3F5803F20D303F16042B2F5003FBC
:105620001FD303F15C42B2F5002F1CD303F170428B
:10563000B2F5902F19D303F14842B2F5803F16D34B
:1056400003F18042B2F1806F13D303F1E043B3F56D
:10565000000F2CBF08200720704701207047002052
:1056600070470220704703207047042070470520D0
:1056700070470620704700BF00ED00E0034800239C
:10568000034A0449036010F033B800BFD8F3002088
:105690000000002051510024FEE700BF4B4A036880
:1056A00030B593428BB04FF00004CDE90444CDE90E
:1056B0000644089404D0464A934249D00BB030BD0A
:1056C000444D4FF4C0524448D5F8E03043F0010354
:1056D000C5F8E030D5F8E03003F001030093022371
:1056E000009904A9CDE904230A23089301F018FFC7
:1056F0004FF40072002304A937480694CDE904232F
:1057000001F00EFFD5F8D8302246214643F0006361
:105710006220C5F8D830D5F8D83003F00063019383
:10572000019B00F0A3FB622000F0DEFB2246214635
:10573000632000F09BFB632000F0D6FB224621464D
:10574000652000F093FB652000F0CEFB0BB030BD70
:10575000204D4FF4404204A9D5F8E03043F0020355
:10576000C5F8E030D5F8E03003F0020302930223DD
:1057700002981A48CDE904230C23089301F0D0FEC7
:10578000D5F8D830224621464A2043F00073C5F8A8
:10579000D830D5F8D83003F000730393039B00F0A2
:1057A00065FB4A2000F0A0FB224621464B2000F07A
:1057B0005DFB4B2000F098FB224621464D2000F077
:1057C00055FB4D2000F090FB0BB030BD00000840B1
:1057D000000004400044025800000258000402582F
:1057E00000F2C441D0F808050AF08EBD01EBC103F8
:1057F00000EB8303D0F80805D3F888220AF0B4BD83
:1058000001EBC10300EB8303D0F808059A6C0AF0A2
:10581000E5BD00BFD0F808050AF08EBE016910B5DD
:10582000044619B1022900D0FEE70121D4F8080589
:105830000AF062FED4F80805BDE810400AF02EBE5A
:1058400010B50446D0F808050AF05AFE2268D2F8CE
:10585000003E43F00103C2F8003E236A23B1034A2D
:10586000136943F00603136110BD00BF00ED00E0B3
:10587000D0F808050AF054BED0F808050AF082BE38
:10588000D0F808050AF068BED0F808050AF090BE06
:10589000D0F808050AF08EBE70B5067804461EB131
:1058A000012E30D0002070BD304D0923304AC5F89C
:1058B0000805C0F8C8522846EE602E63C5E90023EB
:1058C000022302222B610023C5E9062300220023C4
:1058D000C5E9082301220123C5E90A2304F08EFD4E
:1058E00000B1FEE78021284605F05EFD31464022EA
:1058F000284605F02FFD80220121284605F02AFDCB
:105900002678012ECED11B4D09221B4B00216A6047
:1059100002222B600223C5F8084528462B6100238C
:10592000C4F8C852E960C5E9062300220023C5E98E
:105930000823C5E90C2301220023C5E90A2304F04A
:105940005DFD044600B1FEE74FF40071284605F006
:105950002BFD21468022284605F0FCFC4FF4BA724C
:105960003146284605F0F6FC9CE700BFE0F3002036
:1059700000000840F0F8002000000440D0F8C80201
:1059800008B504F0C9FD032802D8024B185C08BD15
:10599000032008BD3C6801249446D0F8C8021A468A
:1059A00008B5634605F094FB032802D8024B185C47
:1059B00008BD032008BD00BF3C680124D0F8C80220
:1059C00008B505F0C3FB032802D8024B185C08BDDC
:1059D000032008BD3C680124D0F8C80208B505F0D2
:1059E00039FC032802D8024B185C08BD032008BD0F
:1059F0003C680124D0F8C80208B505F06FFC032804
:105A000002D8024B185C08BD032008BD3C68012485
:105A10000A06D0F8C83206D401EBC10103EB8101BC
:105A200091F87E02704701F07F0101EBC10103EBA9
:105A3000810191F83E007047D0F8C80208B505F022
:105A400031FB032802D8024B185C08BD032008BDB7
:105A50003C680124D0F8C80208B505F0D9FB03283A
:105A600002D8024B185C08BD032008BD3C68012425
:105A7000D0F8C80208B505F09FFB032802D8024BF6
:105A8000185C08BD032008BD3C680124D0F8C8029A
:105A900005F0B4BB0000000010B5B8B0002104460A
:105AA000C02208A80691CDE90211CDE904110FF03A
:105AB00075FE314B22689A4201D038B010BD9FED7F
:105AC0002A7B4FF4401308A88DED087B2A9307F03A
:105AD00075F8002842D1294C05F0AAFC0C2202A935
